:020000040800F2
:10000000C8090020891A00085D0500085F0500087E
:1000100063050008670500086B0500080000000084
:100020000000000000000000000000006F05000854
:100030007105000800000000730500087505000840
:10004000A31A0008A31A0008A31A0008A31A00089C
:10005000A31A0008A31A0008A9180008A31A000888
:10006000A31A0008A31A0008A31A0008A31A00087C
:10007000A31A0008A31A0008A31A0008A31A00086C
:10008000A31A0008A31A0008A31A0008A31A00085C
:10009000A31A0008A31A0008A31A0008A31A00084C
:1000A000A31A0008A31A0008A31A0008A31A00083C
:1000B000A31A0008DD0A0008050B0008A31A0008AF
:1000C000A31A0008A31A0008A31A0008A31A00081C
:1000D000A31A00080D080008A31A0008A31A0008B4
:1000E000A31A0008A31A0008A31A0008A31A0008FC
:1000F000A31A0008A31A0008A31A0008A31A0008EC
:10010000A31A0008A31A0008290B0008A31A000864
:10011000A31A0008A31A0008A31A0008A31A0008CB
:10012000A31A0008A31A0008A31A0008A31A0008BB
:1001300000F002F800F03FF80AA090E8000C8244BA
:100140008344AAF10107DA4501D100F034F8AFF297
:10015000090EBAE80F0013F0010F18BFFB1A43F0A5
:1001600001031847D0370000F0370000103A24BFD1
:1001700078C878C1FAD8520724BF30C830C144BF0C
:1001800004680C607047000000230024002500264E
:10019000103A28BF78C1FBD8520728BF30C148BFEA
:1001A0000B607047632903F04883002070471FB538
:1001B0001FBD10B510BD03F08AFB1146FFF7F7FF16
:1001C00000F06AF903F0A8FB03B4FFF7F2FF03BCE9
:1001D00000F0C2FA10B501F097FB4FF4A06001F0F7
:1001E00073FC4FF4965000F0C5FA00F0D1FC00F01B
:1001F000DFFC00F0F7FC00F055FD01F001FB00F022
:100200000AFD00F0A3FD00F0CDFD40F23F6141F298
:10021000931000F041FB00F021FE00F0BBFF01F065
:10022000DFF901F0BDFA01F0E3FA01209D49086011
:100230009D49C1F8A0014FF4FA7001F0A2FB002023
:100240009A49086010BD10B509E09948007830B1AE
:1002500000209749087097A003F0C6F900E0F4E782
:1002600000BF10BD10B596480078012802D0442088
:1002700000F049FF93480078012802D0442001F0A3
:10028000DEF891480078012802D0442001F058FAA5
:1002900010BD70B58D48008800F4004000287DD066
:1002A0008A480088C0F30D008949088000208949E8
:1002B00008800FE08849874B1B88CA5C8749854BBB
:1002C0001B88C81886A103F09BF982480088401C4F
:1002D000804908807F4800887D4909888842E9DB99
:1002E0007E480078722841D100257C4803F0F9F956
:1002F000C4B2032C04D179488078303885B220E02C
:10030000042C0BD17548C07830387449897830395D
:1003100001EB810100EB410085B212E0052C10D108
:100320006E4880783038642148436C49C978303948
:1003300001EB810100EB4101684800793038084445
:1003400085B26648407830385649086000205849E0
:1003500008704FF4FA6314221146284600F03FFD5E
:10036000012060490870FFF76EFF00BF5B4800780E
:10037000532830D100245948407830280AD05748B3
:10038000C078303855498978303901EB810100EB6C
:10039000410084B2FFF766FF504800E07BE0407800
:1003A000302806D0312805D0322807D033280DD187
:1003B00008E00BE0204600F078FE07E0204601F060
:1003C00010F803E0204601F096F900BF00BF46A0F8
:1003D00003F00AF900BF47A1404803F0C3F908B988
:1003E00000F040FC46A13D4803F0BCF908B900F01C
:1003F00035FC45A1394803F0B5F908B900F052FCC5
:1004000044A1364803F0AEF908B900F030FC44A12D
:10041000324803F0A7F908B900F035FC41A12F4894
:1004200003F0A0F910B901203F4908603FA12B4813
:1004300003F098F918B901203B49091D08603CA157
:10044000264803F08FF918B900F018FC00F020FCE2
:1004500039A1224803F086F918B900F014FC00F025
:100460001CFC38A11D4803F07DF918B900F006FC0A
:1004700000F009FC36A1194803F074F918B900F02E
:1004800007FC00F00AFC4FF40071144803F048F92F
:1004900000200E49088070BDFFF79CFE01E0FFF7C9
:1004A000F8FEFCE79401214200802142A081214214
:1004B0000400002072756E6F7665720D0A000000F0
:1004C00039000020410000204900002034000020B5
:1004D00002000020000000206802002068000020C8
:1004E0002563000018000020737465706F766572D4
:1004F0000D0A000057686974654F70656E00000052
:1005000055564F70656E00004C69676874436C6F98
:100510007365000046696C6C496E4F70656E000033
:100520004F4C0000464C0000B401234246520000EC
:10053000546F704F70656E00426F74746F6D4F70C2
:10054000656E00004C6566744F70656E00000000BB
:1005500052696768744F70656E000000704700BF95
:10056000FEE700BFFEE700BFFEE700BFFEE7704703
:1005700070477047704700000CB500200190009054
:100580006C48006840F480306A49086000BF6948E0
:10059000006800F4003000900198401C0190009821
:1005A00018B90198B0F5A06FF1D16248006800F465
:1005B000003010B10120009001E000200090009870
:1005C000012843D15C48006840F010005A49086097
:1005D0000846006820F0030008600846006840F004
:1005E0000200086053484068524948600846406825
:1005F00048600846406840F48060486008464068AB
:1006000020F47C1048600846406840F4E8104860D8
:100610000846006840F08070086000BF45480068E8
:1006200000F000700028F9D04248406820F0030034
:10063000404948600846406840F00200486000BFFA
:100640003C48406800F00C000828F9D10CBD10B5FA
:10065000FFF792FF10BD10B53648006840F001006A
:1006600034490860084640683449084031494860C8
:1006700008460068324908402E490860084600686C
:1006800020F4802008600846406820F4FE0048609E
:100690004FF41F008860FFF7DAFF4FF00060294930
:1006A000086010BD10B5002100200022214B5B68BE
:1006B00003F00C0121B1042906D0082928D107E054
:1006C000214B224C236027E01F4B204C236023E06A
:1006D000184B5B6803F47010164B5B6803F48032B0
:1006E000022303EB904022B9194B4343174C23607C
:1006F0000DE0104B5B6803F4003323B1144B43430C
:10070000124C236003E0104B4343104C236003E082
:100710000D4B0E4C236000BF00BF064B5B68C3F35C
:1007200003130C4CE15C094B1B68CB40074C236066
:1007300010BD000000100240002002400000FFF841
:10074000FFFFF6FE08ED00E000127A001C0000201A
:1007500000093D002000002000BF704700BF4A4A4A
:10076000128802F04002002AF9D0C2B2464B1B1D8B
:100770001A80704710B586B00446012144F2040087
:1007800001F02CFD4FF40070ADF8140003208DF83B
:10079000160018208DF8170005A93C4801F062FAF0
:1007A0004FF48060ADF8140004208DF8170005A9FF
:1007B000364801F057FA25208DF8000003208DF807
:1007C00001008DF8020001208DF80300684601F059
:1007D00080F901940020ADF80800ADF80A00ADF8EA
:1007E0000C00ADF810000C20ADF80E0001A9264851
:1007F00002F0A9FC012240F22551234802F03BFD02
:100800000121214802F02BFD06B010BD10B540F2C9
:1008100025511D4802F014FE10B31B4802F090FD54
:10082000C4B21B48008800F40040C8B918480088CA
:1008300000F4804060B10A2C03D0002014490880E5
:1008400020E01348008840F400401149088019E076
:100850000D2C06D10E48008840F480400C490880D9
:1008600010E00B480088C0F30D000A490C540848FA
:100870000088401C0649088008460088C72801DD1A
:100880000020088010BD0000003801400008014031
:1008900034000020680200207FB505460C46012187
:1008A000022001F0A8FCADF80850ADF8044000208B
:1008B000ADF80A00ADF8060001A9AB4801F0C6FD8D
:1008C00001221146A84802F038F91D208DF80000D9
:1008D00000208DF8010003208DF8020001208DF822
:1008E0000300684601F0F5F800219F4802F00AF97C
:1008F0007FBD10B500209D49088001219A4802F073
:1009000001F910BD10B50021974802F0FBF810BDA9
:1009100070B505460C469648C06940F004009449FD
:10092000C86194480580001F0480924820380088E0
:1009300040F001008F49203908808E482C3800880B
:1009400040F001008B492C39088002231E2203212C
:10095000012001F053F870BD70B505460C4684487F
:10096000C06940F008008249C86183480580001FC3
:10097000048081482038008840F001007E492039F9
:1009800008807D482C38008840F001007A492C39D5
:100990000880022332220321012001F02FF870BDCC
:1009A0007648007800F0070030B101280BD002280B
:1009B0001FD003282ED117E07148007820F00100E5
:1009C0006F49087026E06D48806A6C49896908445F
:1009D0006A4988620846806AC96A884203D96748BA
:1009E000C06A6649886215E06448C06A63498862E3
:1009F00010E06248806A61498969401A5F498862EB
:100A00000846806A496A884203D25C48406A5B496A
:100A1000886200BF00BF7047574A1080704700B51A
:100A20005648007800F0070030B1012805D00228B0
:100A30002DD0032843D11CE041E05048C0694F4904
:100A40008968884207D34D48007820F00700801C51
:100A50004A4908700CE04948806A4849C96A884296
:100A600006D34648007820F00700C01C43490870B0
:100A700025E04248C06941498968884206D33F4819
:100A8000007820F00700801C3C49087017E03B48C4
:100A9000C0693A49096B884210D337482C3800881E
:100AA00000F0FE0034492C3908803448007820F0EA
:100AB00007003249087001203249087000BF00BFAA
:100AC0002E48007800F0070038B12C48806A2E4983
:100AD000B1FBF0F31846FFF79FFF00BD224810302E
:100AE000008800F0010020B120480088401C1F4908
:100AF00008801D481030008820F001001A4910318C
:100B00000880704700B51B481C38008800F00100C1
:100B100008B1FFF745FF17481C38008820F0010096
:100B200014491C39088000BD00B513481C380088E2
:100B300000F0010070B11548006808B9012000E01C
:100B40000020124908600D48C069401C0B49C8616B
:100B5000FFF765FF08481C38008820F001000649AF
:100B60001C39088000BD0000000400403600002051
:100B7000001002402C0800402C0C004030030020E4
:100B80000500002004000020005307009C012142C2
:100B900008B50121082001F021FB2020ADF800005C
:100BA00028208DF803006946614801F05BF808BD14
:100BB00008B50121402001F011FB2020ADF8000014
:100BC00010208DF8030003208DF802002020ADF8DE
:100BD00000006946574801F045F82021554801F0CA
:100BE000F0F808BD08B50121802001F0F7FA1020C7
:100BF0008DF8030003208DF8020047F6C770ADF8AA
:100C0000000069464B4801F02DF847F6C771494886
:100C100001F0D7F808BD08B50121A02001F0DEFAE7
:100C200010208DF8030003208DF80200C002ADF8FB
:100C300000006946404801F015F84FF4C0513E48A5
:100C400001F0BFF8F020ADF8000069463B4801F024
:100C500009F8F021394801F0B4F808BD01203849FD
:100C60000860704701203649091D0860704701205F
:100C7000344908603449C1F8B8017047012031494E
:100C800018390860704701202E49143908607047F0
:100C900001202C49103908607047012029490C397E
:100CA0000860704727480068012802D100202549C4
:100CB00008602448001D0068012803D10020214954
:100CC000091D08601E480068012802D100201C4947
:100CD00008601B48001D0068012803D10020184946
:100CE000091D0860174818380068012803D1002042
:100CF000144918390860134814380068012803D1D2
:100D000000201049143908600E4810380068012886
:100D100003D100200B49103908600A480C380068DC
:100D2000012803D1002007490C39086070470000F2
:100D3000000C01400018014000140140001C01405B
:100D4000AC812242B40123420000234208B50121B4
:100D50004C2001F043FA1820ADF8000048208DF82F
:100D6000030069460C4800F07DFF0120ADF800004B
:100D700028208DF803006946084800F073FF4FF4FF
:100D80008070ADF8000010208DF80300694604481B
:100D900000F068FF08BD0000001801400008014095
:100DA000000C014008B50121042001F017FA802051
:100DB000ADF8000010208DF8030003208DF802002C
:100DC0006946244800F04EFF2020ADF800001020B6
:100DD0008DF8030069461F4800F044FF08BD2DE967
:100DE000F04107460D4690461E464FF4FA307843D0
:100DF0004FF4616190FBF1F41748046364201649D5
:100E0000086240F2DC50844203DDA4F2DC508860CA
:100E100001E0114884601048006A0F4988624FF46D
:100E2000FA70486208468561C6620020C8610846BB
:100E3000007820F00700401C087040F23F6140F24B
:100E4000C110FFF765FD9F2141F29310FFF784FD6C
:100E5000BDE8F081000801403003002008B5012101
:100E6000202001F0BBF910208DF8030003208DF83D
:100E700002000F20ADF800006946C04800F0F2FE05
:100E80000F21BE4800F09DFF08BD10B50120BC49F0
:100E900008600020BB49C1F88401B94908310860E5
:100EA000B849C1F88C01B849098888B200F069FDD9
:100EB0000120B3490860091D08600020091D086071
:100EC000B049C1F88C01B049098888B200F059FDD9
:100ED0000020AB4908600120091D08600020091DA1
:100EE0000860A849C1F88C01A749098888B200F0B8
:100EF00048FD0020A24908600120091D0860091D65
:100F0000086000209F49C1F88C019F49098888B278
:100F100000F037FD00209A490860091D0860012093
:100F2000091D086000209749C1F88C01964909887D
:100F300088B200F026FD002091490860091D086074
:100F40000120091D08608F49C1F88C018E4909886C
:100F500088B200F016FD002089490860091D08606C
:100F6000091D086001208749C1F88C01864909885C
:100F700088B200F006FD0120814908600020091DAB
:100F80000860091D086001207E49C1F88C017E4976
:100F9000098888B200F0F5FC10BD10B50020784932
:100FA00008607849C1F8840175490831086001205A
:100FB0007449C1F88C017449098888B200F0E1FCD9
:100FC00000206F490860091D08600120091D0860A4
:100FD0006C49C1F88C016C49098888B200F0D1FCD9
:100FE000002067490860091D08600120091D08608C
:100FF00000206449C1F88C016349098888B200F077
:10100000C0FC00205E4908600120091D0860091D20
:10101000086000205B49C1F88C015B49098888B2EF
:1010200000F0AFFC0020564908600120091D08604F
:101030000020091D08605349C1F88C0152490988F4
:1010400088B200F09EFC01204D490860091D08602F
:101050000020091D08604B49C1F88C014A490988E4
:1010600088B200F08EFC0120454908600020091D6F
:101070000860091D08604349C1F88C01424909888C
:1010800088B200F07EFC01203D4908600020091D67
:101090000860091D086001203A49C1F88C013A49ED
:1010A000098888B200F06DFC10BD70B504460025BB
:1010B0000020364908700CE0681C85B2FFF76DFF10
:1010C00060024FF4B47190FBF1F0A84201DA002500
:1010D00003E02E4800780028EED000BF642000F026
:1010E00050FC012029490870002029490870244932
:1010F00008602449C1F88401214908310860214968
:10110000C1F88C0170BD70B50446002500201F4950
:1011100008700CE0681C85B2FFF7B7FE60024FF460
:10112000B47190FBF1F0A84201DA002503E0174802
:1011300000780028EED000BF642000F022FC0120DF
:10114000124908701249087000200D4908600D49C5
:10115000C1F884010A49083108600A49C1F88C01C4
:1011600070BD0020064908600649C1F884010449A1
:10117000083108600349C1F88C0170470014014030
:1011800080812242008022423C0000203800002062
:101190003900002008B50121202001F01FF810209F
:1011A0008DF8030003208DF80200F020ADF8000058
:1011B0006946C04800F056FDF021BE4800F001FE2F
:1011C00008BD10B50120BC4908600020BB49C1F82A
:1011D0009401B94908310860B849C1F89C01B8497F
:1011E000098888B200F0CDFB0120B3490860091DD1
:1011F00008600020091D0860B049C1F89C01B04991
:10120000098888B200F0BDFB0020AB4908600120CE
:10121000091D08600020091D0860A849C1F89C014B
:10122000A749098888B200F0ACFB0020A2490860F9
:101230000120091D0860091D086000209F49C1F8B0
:101240009C019F49098888B200F09BFB00209A49C5
:101250000860091D08600120091D086000209749E9
:10126000C1F89C019649098888B200F08AFB0020E9
:1012700091490860091D08600120091D08608F4917
:10128000C1F89C018E49098888B200F07AFB0020E1
:1012900089490860091D0860091D08600120874907
:1012A000C1F89C018649098888B200F06AFB0120D8
:1012B000814908600020091D0860091D086001209F
:1012C0007E49C1F89C017E49098888B200F059FB2B
:1012D00010BD10B50020784908607849C1F8940124
:1012E00075490831086001207449C1F89C017449AE
:1012F000098888B200F045FB00206F490860091D8D
:1013000008600120091D08606C49C1F89C016C4906
:10131000098888B200F035FB002067490860091D84
:1013200008600120091D086000206449C1F89C0183
:101330006349098888B200F024FB00205E490860F8
:101340000120091D0860091D086000205B49C1F8E3
:101350009C015B49098888B200F013FB00205649C4
:1013600008600120091D08600020091D086053491C
:10137000C1F89C015249098888B200F002FB0120A3
:101380004D490860091D08600020091D08604B498F
:10139000C1F89C014A49098888B200F0F2FA01209C
:1013A000454908600020091D0860091D086043497F
:1013B000C1F89C014249098888B200F0E2FA012094
:1013C0003D4908600020091D0860091D08600120D2
:1013D0003A49C1F89C013A49098888B200F0D1FA2B
:1013E00010BD70B5044600250020364908700CE099
:1013F000681C85B2FFF76DFF60024FF4B47190FB7B
:10140000F1F0A84201DA002503E02E480078002818
:10141000EED000BF642000F0B4FA01202949087022
:10142000002029490870244908602449C1F8940122
:101430002149083108602149C1F89C0170BD70B58F
:101440000446002500201F4908700CE0681C85B286
:10145000FFF7B7FE60024FF4B47190FBF1F0A842C1
:1014600001DA002503E0174800780028EED000BF1D
:10147000642000F086FA01201249087012490870B1
:1014800000200D4908600D49C1F894010A4908314E
:1014900008600A49C1F89C0170BD00200649086037
:1014A0000649C1F894010449083108600349C1F8AC
:1014B0009C0170470014014090812242008022422A
:1014C00044000020400000204100002010B5012110
:1014D000AF4800F074FC10BD10B50121AC4800F01D
:1014E00070FC10BD10B50221A94800F068FC10BDC9
:1014F00010B50221A64800F064FC10BD10B504210F
:10150000A34800F05CFC10BD10B50421A04800F019
:1015100058FC10BD10B508219D4800F050FC10BDCE
:1015200010B508219A4800F04CFC10BD10B5FFF72B
:10153000CDFFFFF7D7FFFFF7E7FFFFF7F1FF10BD84
:1015400010B5FFF7C9FFFFF7CDFFFFF7D7FFFFF794
:10155000E7FF10BD10B5FFF7BFFFFFF7C9FFFFF7AB
:10156000CDFFFFF7D7FF10BD10B5FFF7AFFFFFF7B7
:10157000BFFFFFF7C3FFFFF7CDFF10BD10B5FFF7AB
:10158000A5FFFFF7B5FFFFF7BFFFFFF7C9FF10BDCE
:1015900010B5FFF7A1FFFFF7A5FFFFF7B5FFFFF7B6
:1015A000BFFF10BD10B5FFF797FFFFF7A1FFFFF7D3
:1015B000A5FFFFF7B5FF10BD10B5FFF78DFFFFF7D3
:1015C00097FFFFF7A1FFFFF7A5FF10BD10B5FFF7CD
:1015D00083FFFFF78DFFFFF797FFFFF7A1FF10BD18
:1015E00008B50121802000F0F9FD10208DF80300DE
:1015F00003208DF802000F20ADF800006946644812
:1016000000F030FB0F21624800F0DBFB08BD10B595
:10161000FFF7B4FF5F49098888B200F0B2F9FFF71D
:1016200085FF5C49098888B200F0ABF9FFF7B0FF8D
:101630005849098888B200F0A4F9FFF781FF55499D
:10164000098888B200F09DF9FFF7ACFF514909887D
:1016500088B200F096F9FFF77DFF4E49098888B2FD
:1016600000F08FF9FFF7A8FF4A49098888B200F017
:1016700088F9FFF779FF4749098888B200F081F9B6
:1016800010BD10B5FFF798FF4249098888B200F0F5
:1016900078F9FFF75FFF3F49098888B200F071F9D8
:1016A000FFF780FF3B49098888B200F06AF9FFF72D
:1016B00047FF3849098888B200F063F9FFF768FFEF
:1016C0003449098888B200F05CF9FFF72FFF3149EF
:1016D000098888B200F055F9FFF750FF2D490988B5
:1016E00088B200F04EF9FFF73FFF2A49098888B217
:1016F00000F047F910BD70B50446002500202649CA
:1017000008700CE0681C85B2FFF7BBFF60024FF465
:10171000B47190FBF1F0A84201DA002503E01E4805
:1017200000780028EED000BF642000F02AF90120E4
:1017300019490870002019490870FFF747FF70BD6C
:1017400070B5044600250020134908700CE0681CA1
:1017500085B2FFF75CFF60024FF4B47190FBF1F0CB
:10176000A84201DA002503E00B4800780028EED0FB
:1017700000BF642000F005F90120084908700649FF
:101780000870FFF723FF70BD10B5FFF71FFF10BDF6
:10179000001C01404C0000204800002049000020AF
:1017A00008B50121802000F019FDE020ADF800000F
:1017B00028208DF8030069464B4800F053FAE021D9
:1017C000494800F0FEFA08BD08B50121042000F0E8
:1017D00005FD1320ADF8000028208DF803006946B0
:1017E000424800F03FFA1321404800F0EAFA08BDF1
:1017F00010B5FFF7D5FF0121084600F0EFFC10BD42
:101800000EB5FFF7E1FF0121084600F0E7FC0421D7
:10181000002000F03DFB1020019000208DF8080012
:101820000C208DF8090001A801F05CFE002108469B
:1018300000F02EFB0120019001A801F053FE0121D0
:10184000002000F025FB0220019001A801F04AFED3
:101850000A208DF8000002208DF8010001208DF88B
:1018600002008DF80300684600F033F906208DF879
:10187000000002208DF8010001208DF802008DF893
:101880000300684600F025F907208DF800000220CB
:101890008DF8010000208DF8020001208DF8030072
:1018A000684600F016F90EBD10B50A2000F069F880
:1018B0000F480068A0B900210E4801F023F901206B
:1018C0000D4908604FF4FA7000F05BF800200B49F6
:1018D000C1F8A00101200A4908700AA001F084FEA5
:1018E000012001F076FE10BD001C014000080140FF
:1018F00000012142000C0040A081214200802142D1
:10190000040000203000000010B56FF0040000F06B
:101910002AF92E4800682E49B0FBF1F02D490870D5
:101920000846007800EB4001C1EBC0104FF6FF7194
:1019300001EAC0002849088010BD0146254A1278F6
:101940004A434FF0E0235A6100229A611A46126915
:1019500042F001021A6100BF4FF0E022106900F06E
:1019600001021AB100F48032002AF5D04FF0E022D3
:10197000126922F001024FF0E0231A6100229A61FD
:1019800070470146144A12884A434FF0E0235A61D7
:1019900000229A611A46126942F001021A6100BFE0
:1019A0004FF0E022106900F001021AB100F4803219
:1019B000002AF5D04FF0E022126922F001024FF028
:1019C000E0231A6100229A61704700001C00002089
:1019D00000127A0050000020520000200146072328
:1019E00023EA01021202254B18684FF6FF03184044
:1019F000234B18431043214B186070472DE9F041E9
:101A00000746884614461D462846FFF7E7FFC5F1FE
:101A1000040007FA00F60F20284100EA08000643F8
:101A200006F00F06E21704EBD2625211920002F1A7
:101A3000E022D2F800212146E31704EBD3635B11C7
:101A4000A4EB431C012303FA0CF31A432046E317CB
:101A500004EBD3635B119B0003F1E023C3F8002187
:101A60000848005D40EA061006490855BDE8F081C7
:101A700030BF704772B6704762B670470CED00E039
:101A80000000FA0500E400E00948804709480047E3
:101A9000FEE7FEE7FEE7FEE7FEE7FEE7FEE7FEE71E
:101AA000FEE7FEE704480549054A064B704700007B
:101AB0005706000831010008C8030020C8090020AB
:101AC000C8050020C805002031490143314A116092
:101AD000704770B5002100230F22C47804B32D4C49
:101AE000246804F4E064C4F5E064210AC1F104034D
:101AF000CA40447804FA03F1847814402143090170
:101B0000254C0678A155047804F01F050124AC404B
:101B100005786D11AD0005F1E025C5F8004109E03B
:101B2000047804F01F050124AC401C4D06787611A2
:101B300045F8264070BD1A4A0A400243154B1B1F48
:101B40001A60704739B1134A121D12680243114BD3
:101B50001B1D1A6006E00F4A121D126882430D4BCE
:101B60001B1D1A607047042808D14FF0E021096955
:101B700041F004014FF0E022116107E04FF0E02155
:101B8000096921F004014FF0E02211617047000063
:101B90000000FA050CED00E000E400E080E100E068
:101BA00080FFFF1F10B50446CC48844208D10121B4
:101BB000042000F02DFB0021042000F029FB46E06A
:101BC000C748844208D10121082000F021FB0021F0
:101BD000082000F01DFB3AE0C248844208D10121F0
:101BE000102000F015FB0021102000F011FB2EE06A
:101BF000BD48844208D10121202000F009FB0021CA
:101C0000202000F005FB22E0B848844208D10121E1
:101C1000402000F0FDFA0021402000F0F9FA16E023
:101C2000B348844208D10121802000F0F1FA00215C
:101C3000802000F0EDFA0AE0AE48844207D101218D
:101C4000801500F0E5FA0021A01500F0E1FA10BDC2
:101C500010B50121084600F0DBFA0021012000F058
:101C6000D7FA10BD2DE9F0410246002500260020DC
:101C700000230024002791F803C00CF00F0591F811
:101C800003C00CF0100CBCF1000F03D091F802C09F
:101C90004CEA050591F800C0BCF1000F31D0146882
:101CA00000202BE04FF0010C0CFA00F3B1F800C05B
:101CB0000CEA03069E4220D183004FF00F0C0CFA71
:101CC00003F7BC4305FA03FC4CEA040491F803C093
:101CD000BCF1280F06D14FF0010C0CFA00FCC2F841
:101CE00014C00AE091F803C0BCF1480F05D14FF0D1
:101CF000010C0CFA00FCC2F810C0401C0828D1D31B
:101D00001460B1F800C0BCF1FF0F34DD546800204E
:101D10002EE000F1080C4FF0010808FA0CF3B1F8BE
:101D200000C00CEA03069E4221D183004FF00F0C45
:101D30000CFA03F7BC4305FA03FC4CEA040491F8DF
:101D400003C0BCF1280F05D100F1080C08FA0CF80B
:101D5000C2F8148091F803C0BCF1480F07D100F11C
:101D6000080C4FF0010808FA0CF8C2F81080401C6B
:101D70000828CED35460BDE8F0814FF6FF71018092
:101D8000022181700421C1707047024600209368CF
:101D90000B400BB1012000E000207047014688682D
:101DA00080B2704702460020D3680B400BB101207F
:101DB00000E0002070470146C86880B270470161AA
:101DC0007047416170470AB1016100E041617047AD
:101DD000C16070474FF480320A4382618161826141
:101DE00082698269704702460020434B18684FF6AB
:101DF0008073184040EA021008433F4B1860704758
:101E00003E49C8617047F0B50A460023002400210E
:101E1000002500F00046B6F1004F02D1364EF169C0
:101E200001E0354E7168C0F3034583B200F44016FB
:101E3000B6F5401F08D121F070612F4E766826F06C
:101E400070662D4F7E6012E000F48016B6F5801F9C
:101E500006D1032606FA05F4A14341F0706106E0BD
:101E6000460D360103FA06F6B14341F0706122B126
:101E7000460D360103FA06F6314300F00046B6F18E
:101E8000004F02D11C4EF16101E01B4E7160F0BDAC
:101E900030B500228B071C0F0F2303FA04F2164BF8
:101EA00008338C1053F824309343134C08348D10AE
:101EB00044F8253023468C1053F824308C07240F27
:101EC00000FA04F423430C4C08348D1044F82530F8
:101ED00030BD0A49DC31086070470000000801404D
:101EE000000C0140001001400014014000180140A6
:101EF000001C014000200140000001400000204281
:101F0000DF48006840F00100DD490860084640688D
:101F1000DC490840DA49486008460068DA49084068
:101F2000D74908600846006820F480200860084609
:101F3000406820F4FE0048604FF41F00886070473E
:101F4000CF49096821F48031CD4A116011460968F2
:101F500021F480211160B0F5803F03D0B0F5802FCF
:101F60000ED106E0C649096841F48031C44A1160C7
:101F700007E0C349096841F4A021C14A116000E0AB
:101F800000BF00BF704710B50146002200230020AB
:101F90004A11012A02D1BA4C236806E0022A02D172
:101FA000B74C236A01E0B64C636A01F01F020124BA
:101FB00094401C400CB1012000E0002010BD38B559
:101FC000002000900024002500BF3120FFF7DBFF38
:101FD00005460098401C00900098B0F5A06F01D015
:101FE000002DF2D03120FFF7CEFF08B1012400E030
:101FF0000024204638BD01460020A14A106820F088
:10200000F80040EAC10010607047A04908607047BE
:10201000024600209A4B586820F47C1042EA0103E3
:102020001843974B586070479849086670470146B7
:102030000020934A506820F0030008435060704726
:102040008F48406800F00C007047014600208C4A21
:10205000506820F0F00008435060704701460020AF
:10206000874A506820F4E06008435060704701469A
:102070000020834A506820F4605040EAC10050605C
:10208000704729B17E4A527A02437D4B5A7204E06E
:102090007B4A527A82437A4B5A7270477B49D831D5
:1020A0000860704701460020754A506820F440409F
:1020B0000843506070470021714A20321170704A05
:1020C00082F82010012802D004280AD104E001215E
:1020D0006B4A2032117005E00521694A20321170E7
:1020E00000E000BF00BF704769490860704764495D
:1020F000096A0143624A11627047654944390860C0
:10210000704730B500210022002400235C4D6D682B
:1021100005F00C0121B1042905D0082923D105E0DF
:102120005C4D056022E05B4D05601FE0544D6D681D
:1021300005F47012524D6D6805F48034022505EBEC
:1021400092421CB9544D554305600BE04C4D6D68EF
:1021500005F400351DB1504D5543056002E04D4D6D
:102160005543056002E04B4D056000BF00BF444D84
:102170006D6805F0F0010909484D6B5C0568DD40AC
:1021800045603F4D6D6805F4E061090A434D6B5CA5
:102190004568DD4085603A4D6D6805F46051C90AB7
:1021A0003E4D6B5C4568DD40C560354D6D6805F49E
:1021B0004041890B3A4D6B5CC568B5FBF3F5056191
:1021C00030BD29B12E4A526902432D4B5A6104E0B9
:1021D0002B4A526982432A4B5A61704729B1284AD7
:1021E00092690243264B9A6104E0254A9269824330
:1021F000234B9A61704729B1214AD2690243204B8F
:10220000DA6104E01E4AD26982431D4BDA617047ED
:1022100029B11B4AD2680243194BDA6004E0184A1C
:10222000D2688243164BDA60704729B1144A1269AA
:102230000243134B1A6104E0114A12698243104BA6
:102240001A61704712494039086070470F49C864E5
:1022500070470B49C87170470948406A40F0807068
:1022600007494862704701460020054A92680A40C3
:102270000AB1012000E000207047014988727047D0
:10228000001002400000FFF8FFFFF6FE000042428F
:102290008004424200127A0000093D0054000020F0
:1022A0006400002010B50446FE48844208D1012194
:1022B000C014FFF7ADFF0021E014FFF7A9FFC4E051
:1022C000B4F1804F08D101210846FFF7AEFF00218D
:1022D0000120FFF7AAFFB8E0F348844208D10121AA
:1022E0000220FFF7A2FF00210220FFF79EFFACE0D3
:1022F000EE48844208D101210420FFF796FF002117
:102300000420FFF792FFA0E0E948844208D10121B0
:102310000820FFF78AFF00210820FFF786FF94E0DE
:10232000E448844208D101211020FFF77EFF0021FC
:102330001020FFF77AFF88E0DF48844208D10121AE
:102340002020FFF772FF00212020FFF76EFF7CE0C6
:10235000DA48844208D101214014FFF759FF0021D7
:102360006014FFF755FF70E0D548844209D1012180
:10237000C804FFF74DFF00214FF40020FFF748FF8E
:1023800063E0D048844209D101210805FFF740FFEE
:1023900000214FF48010FFF73BFF56E0CA4884420B
:1023A00009D101214805FFF733FF00214FF4001048
:1023B000FFF72EFF49E0C548844208D101214020A3
:1023C000FFF733FF00214020FFF72FFF3DE0C0481B
:1023D000844208D101218020FFF727FF00218020BF
:1023E000FFF723FF31E0BB48844208D1012180156B
:1023F000FFF71BFF0021A015FFF717FF25E0B648E8
:10240000844209D101210804FFF702FF00214FF4A3
:102410008030FFF7FDFE18E0B048844209D1012169
:102420004804FFF7F5FE00214FF40030FFF7F0FEFF
:102430000BE0AB48844208D101218804FFF7E8FE95
:1024400000214FF48020FFF7E3FE10BD0022028838
:10245000944B98420ED0994B98420BD0B0F1804FDC
:1024600008D0914B984205D0904B984202D0904BA7
:10247000984204D14FF68F731A404B881A438D4B04
:10248000984207D08C4B984204D04FF6FF431A4035
:10249000CB881A4302808B8883850B880385814B08
:1024A00098420BD0854B984208D08B4B984205D070
:1024B0008A4B984202D08A4B984201D10B7A03860C
:1024C00001238382704770B5002400220023058C0D
:1024D0004FF6FE7635400584028C8388048B4FF6D8
:1024E0008F752C40B51E2C400D882C43751E2A403C
:1024F0000D892A434D882A436A4DA8420BD06F4D5F
:10250000A84208D0744DA84205D0744DA84202D00C
:10251000734DA84213D14FF6F7752A404D892A43CF
:102520004FF6FB752A408D882A434FF6FF652B40F6
:102530004FF6FF552B408D892B43CD892B4383804C
:102540000483CD888586028470BD70B50024002286
:102550000023058C4FF6EF7635400584028C838886
:10256000048B48F6FF752C404FF6FF452C400D8834
:102570004FF6FF7606EA05252C434FF6DF752A4015
:102580000D8906EA05152A434D8806EA05152A43F2
:10259000444DA84202D0494DA8421DD14FF67F7547
:1025A0002A404D894FF6FF7606EA05152A434FF675
:1025B000BF752A408D8806EA05152A434FF6FF3578
:1025C0002B404FF2FF752B408D8906EA85052B4382
:1025D000CD8906EA85052B4383800483CD88058752
:1025E000028470BD70B5002400220023058C4FF6D4
:1025F000FF6635400584028C8388848B4FF68F7587
:102600002C404FF6FC752C400D882C434FF6FF559F
:102610002A400D894FF6FF7606EA05252A434D88A4
:1026200006EA05252A431F4DA84202D0234DA842A1
:102630001DD14FF2FF752A404D894FF6FF7606EA0D
:1026400005252A434FF6FF352A408D8806EA0525E1
:102650002A434EF6FF752B404DF6FF752B408D89B2
:1026600006EA05152B43CD8906EA05152B43838021
:102670008483CD888587028470BD70B500220023D5
:102680000024058C4EF6FF7635400584038C848843
:10269000828B48F6FF752A404FF6FF452A400D8889
:1026A00020E00000002C0140000400400008004031
:1026B000000C0040001000400014004000340140B5
:1026C000004C0140005001400054014000180040FF
:1026D000001C004000200040004001400044014038
:1026E000004801404FF6FF7606EA05252A434DF6DD
:1026F000FF752B400D8906EA05352B434D8806EA08
:1027000005352B43FA4DA84202D0FA4DA84208D114
:102710004BF6FF752C408D894FF6FF7606EA85153E
:102720002C4384808283CD88A0F84050038470BD00
:10273000828B4FF2FF331A408283828B4FF6FF73F6
:1027400003EA01231A4382837047F0B50C4615460D
:10275000002200210026078C4EF6FF7C07EA0C07BA
:102760000784828B018C4FF6FF7707EA043640F628
:10277000FF473A404FF6FF7707EA05273A434FF6FF
:10278000FF7707EA03373A43D94FB8420ED0D94F03
:10279000B8420BD0B0F1804F08D0D74FB84205D027
:1027A000D64FB84202D0D64FB84206D14DF6FF7789
:1027B000394046F48057394305E047F6FF57394022
:1027C00044F48057394382830184F0BD828B4FF6F5
:1027D000F3731A408283828B0A4382837047F0B579
:1027E0000C461546002200210026078C4FF6FF6C90
:1027F00007EA0C070784828B018C4FF6FF7707EA04
:1028000004264FF60C773A404FF6FF7707EA031796
:102810002F433A43B64FB8420ED0B64FB8420BD012
:10282000B0F1804F08D0B44FB84205D0B34FB84292
:1028300002D0B34FB84206D14FF6FF57394046F4A5
:102840008077394305E04FF2FF57394044F48077F1
:10285000394382830184F0BD028B4FF2FF331A406B
:102860000283028B4FF6FF7303EA01231A430283AC
:102870007047F0B50C461546002200210026078C53
:102880004FF6EF7C07EA0C070784028B018C4FF6AA
:10289000FF7707EA041640F6FF473A404FF6FF7706
:1028A00007EA03373A434FF6FF7707EA05273A432B
:1028B0008F4FB8420ED08F4FB8420BD0B0F1804F3F
:1028C00008D08D4FB84205D08C4FB84202D08C4F03
:1028D000B84206D14FF6DF77394046F0100739434A
:1028E00005E04FF65F77394044F010073943028323
:1028F0000184F0BD028B4FF6F3731A400283028B02
:102900000A4302837047F0B50C46154600220021A9
:10291000068C4FF6FE773E400684028B018C4FF604
:102920000C7632407E1C06EA03162E433243704E6C
:10293000B0420ED06F4EB0420BD0B0F1804F08D0F5
:102940006D4EB04205D06D4EB04202D06C4EB042DA
:1029500006D14FF6FD76314044F00106314305E0E3
:102960004FF6F576314044F001063143028301848D
:10297000F0BD70B505460C465D4885420ED05D48F9
:1029800085420BD0B5F1804F08D05B48854205D019
:102990005A48854202D05A48854200D100E000BF23
:1029A000208850B92389A28861882846FFF7ABFFA9
:1029B000E1882846FFF79EFF25E0208804280AD1F9
:1029C0002389A28861882846FFF753FFE1882846BB
:1029D000FFF742FF17E0208808280AD12389A28840
:1029E00061882846FFF7FBFEE1882846FFF7EEFEE8
:1029F00009E02389A28861882846FFF7A6FEE188BE
:102A00002846FFF795FE70BD2DE9F04105460C46BE
:102A100000260127608808B9022600E00026A08869
:102A2000012801D1022700E001272088A0B92389CD
:102A3000A28861882846FFF766FFE1882846FFF7ED
:102A400059FF23893A4631462846FFF712FFE188AD
:102A50002846FFF701FF13E02389A28861882846F2
:102A6000FFF707FFE1882846FFF7F6FE23893A467D
:102A700031462846FFF747FFE1882846FFF73AFF2F
:102A8000BDE8F0810A884B881A438B881A43CB88AB
:102A90001A430B891A434B891A438B891A43A0F8AE
:102AA000442070474FF6FF71818000210180C18072
:102AB0004180017270470021018041808180C18086
:102AC000018141818181C181704700210180418064
:102AD000012181800021C180018170470021018096
:102AE00041808180C18001814181818170470000E6
:102AF000002C014000340140000400400008004068
:102B0000000C004021B1028842F00102028004E082
:102B100002884FF6FE731A400280704731B1B0F858
:102B2000442042F40042A0F8442005E0B0F84420DC
:102B3000C2F30E02A0F8442070471AB183890B43F8
:102B4000838102E083898B43838170478182704750
:102B500041EA0203A0F8483070471AB183890B4359
:102B6000838102E083898B438381704701894FF61B
:102B7000F8721140018170470A46002101894FF621
:102B80008F73194011430181704730B504460D46DB
:102B900029462046FFF7F0FF208940F007002081FA
:102BA00030BD2DE9F04104460D4616461F46602D06
:102BB00006D13B46012231462046FFF75AFE05E08A
:102BC0003B46012231462046FFF79DFE294620461E
:102BD000FFF7D2FF208940F007002081BDE8F08197
:102BE00030B50C4600210189C9B24FF6FF7505EAE0
:102BF0000325154325432943018130BD2DE9F041CB
:102C000005460E4617469846002443463A46314646
:102C10002846FFF7E5FF2C894FF6F870044044F092
:102C200007044FF68F70044044F070042C81BDE817
:102C3000F081F0B504460D4616461F463B46324627
:102C400029462046FFF7CCFF208940F480402081B0
:102C5000F0BD0185828270470A46002101884FF647
:102C60008F731940114301807047F0B50C4615462B
:102C70001E460021002200230189028B038C4FF69F
:102C8000F877394021434FF6FC473A4040F20117AC
:102C90003A434FF6DD773B404FF6FF7707EA0617DA
:102CA0002F433B43018102830384F0BD0A46002188
:102CB000018B4FF68F7319401143018370470A4609
:102CC0000021018B48F6FF7319404FF6FF7303EAAA
:102CD00002231943018370470A460021818B4FF676
:102CE0008F7319401143818370470A460021818BFD
:102CF00048F6FF7319404FF6FF7303EA02231943A6
:102D00008183704721B1028842F08002028004E092
:102D100002884FF67F731A400280704721B1828883
:102D200042F00402828004E082884FF6FB731A406E
:102D30008280704721B1828842F00802828004E0DC
:102D400082884FF6F7731A408280704721B18288DB
:102D500042F00102828004E082884FF6FE731A403E
:102D6000828070470A460021018B4FF6F7731940A5
:102D70001143018370470A460021018B4FF2FF7314
:102D800019404FF6FF7303EA02231943018370478A
:102D90000A460021818B4FF6F77319401143818356
:102DA00070470A460021818B4FF2FF7319404FF69E
:102DB000FF7303EA02231943818370470A46002107
:102DC000018B4FF6FB7319401143018370470A468C
:102DD0000021018B4FF6FF3319404FF6FF7303EAD2
:102DE00002231943018370470A460021818B4FF665
:102DF000FB7319401143818370470A460021818B80
:102E00004FF6FF3319404FF6FF7303EA02231943CD
:102E1000818370470A460021018B4FF67F7319406A
:102E20001143018370470A460021018BC1F30E0153
:102E30004FF6FF7303EA02231943018370470A46E2
:102E40000021818B4FF67F731940114381837047B6
:102E50000A460021818BC1F30E014FF6FF7303EA8E
:102E600002231943818370470A460021018C4FF6E3
:102E7000FD7319401143018470470A460021018CFB
:102E80004FF6F77319401143018470470A46002139
:102E9000018C4FF6DF7319404FF6FF7303EA0213FC
:102EA0001943018470470A460021018C4FF67F7355
:102EB00019404FF6FF7303EA021319430184704768
:102EC0000A460021018C4FF6FF5319404FF6FF735D
:102ED00003EA02231943018470470A460021018C4A
:102EE0004FF2FF7319404FF6FF7303EA02231943B1
:102EF000018470470A460021018C4DF6FF7319408A
:102F00004FF6FF7303EA023319430184704730B56B
:102F1000002301248C40A3B2048C9C430484048CC1
:102F200002FA01F5ADB22C43048430BD30B5002364
:102F300004248C40A3B2048C9C430484048C02FAC5
:102F400001F5ADB22C43048430BD70B503460020BA
:102F500000241846183001258D40ACB21D8CA543C5
:102F60001D8409B1082909D100EB6100056825F02D
:102F7000700505600568154305600EE00D1FC5F37B
:102F80004E052844056825F4E045056005684FF6C0
:102F9000FF7606EA02263543056070BD21B102883E
:102FA00042F00202028004E002884FF6FD731A40EC
:102FB0000280704721B1028842F00402028004E0DE
:102FC00002884FF6FB731A400280704721B1828855
:102FD00042F08002828004E082884FF67F731A40BC
:102FE0008280704702884FF6F7731A400280028889
:102FF0000A430280704782884FF68F731A4082809E
:1030000082880A438280704702894FF6F8731A401B
:10301000028102890A430281704702894FF67F7359
:103020001A40028102890A430281704781847047F5
:103030008185704781867047018770478187704717
:10304000A0F84010704702884FF6FF431A400280F4
:1030500002880A43028070470146888E7047014605
:10306000088F70470146888F70470146B1F84000CD
:1030700070470146888C70470146088D70470246AC
:103080000020138A0B400BB1012000E000207047A4
:10309000CA430282704730B5024600200023002454
:1030A000158A05EA0103958905EA010413B10CB1FB
:1030B000012000E0002030BDCA43028270470000BA
:1030C00010B50446FB48844209D101218803FFF76B
:1030D0009FF800214FF48040FFF79AF832E0F6485D
:1030E000844209D101214804FFF79FF800214FF4E1
:1030F0000030FFF79AF825E0F048844209D1012119
:103100008804FFF792F800214FF48020FFF78DF834
:1031100018E0EB48844209D10121C804FFF785F883
:1031200000214FF40020FFF780F80BE0E5488442CF
:1031300008D101210805FFF778F800214FF480102D
:10314000FFF773F810BD2DE9F04786B005460E462F
:103150000024A24600BFA1460027B08900B100BFED
:103160002F462C8A4CF6FF700440F08804432C82D2
:10317000AC894EF6F3100440B08831890843718958
:1031800008430443AC81AC8A4FF6FF400440B08949
:103190000443AC8201A8FEF7B4FFC648874202D1BF
:1031A000DDF810A001E0DDF80CA0A88900F40040D3
:1031B00040B10AEBCA0000EB0A1031684900B0FBCD
:1031C000F1F807E00AEBCA0000EB0A103168890049
:1031D000B0FBF1F86420B8FBF0F004012009642191
:1031E00001FB1089A88900F4004040B1322000EBB7
:1031F000C900B0FBF1F000F00700044308E0322002
:1032000000EB09106421B0FBF1F000F00F00044363
:103210002C8106B0BDE8F0874FF416510160002103
:103220008180C18001810C21418100218181704711
:1032300010B502460020108A4FF2FF0318400B8899
:103240004C8823438C882343CC8823431843108223
:1032500010BD0021018041808180C180704721B173
:10326000828942F40052828104E082894DF6FF7324
:103270001A4082817047F0B50346002400260025DD
:10328000002040F66A17B94200D100BF1846C1F3CA
:10329000421401F01F06012707FA06F5012C01D19F
:1032A0000C3004E0022C01D1103000E014301AB1CF
:1032B00007682F43076002E00768AF430760F0BD6F
:1032C0001AB1838A0B43838202E0838A8B43838211
:1032D0007047028A4FF6F0731A400282028A0A434C
:1032E0000282704782894FF2FF731A40828182897D
:1032F0000A438281704721B1828942F002028281B1
:1033000004E082894FF6FD731A4082817047028A79
:103310004FF6DF731A400282028A0A430282704724
:1033200021B1028A42F48042028204E0028A4BF612
:10333000FF731A4002827047C1F30802828070470F
:1033400001468888C0F308007047818941F0010177
:1033500081817047028BD2B20283028B42EA012242
:1033600002837047028B02F47F420283028B0A437E
:103370000283704721B1828A42F02002828204E0F7
:10338000828A4FF6DF731A408282704721B1828AA7
:1033900042F01002828204E0828A4FF6EF731A40F4
:1033A0008282704721B1828A42F00802828204E060
:1033B000828A4FF6F7731A408282704721B1828960
:1033C00042F40042828103E08289C2F30E028281CC
:1033D000704721B1828A42F40062828204E0828ACC
:1033E0004FF2FF731A4082827047828A4FF6FB7356
:1033F0001A408282828A0A438282704721B1828A7D
:1034000042F00202828204E0828A4FF6FD731A4083
:103410008282704702460020B1F5007F00D100BFD4
:1034200013880B400BB1012000E00020704701F42D
:103430000072B2F5007F00D100BFCA43028070471E
:1034400070B50246002400230025002040F66A16CD
:10345000B14200D100BFC1F3421501F01F030126A4
:1034600006FA03F3012D02D19689334006E0022DBE
:1034700002D1168A334001E0968A33400C120126AD
:1034800006FA04F41688344013B10CB1012000E0B0
:10349000002070BD10B50022002340F66A14A1423E
:1034A00000D100BF0A1201249440A3B2DC4304807F
:1034B00010BD0000003801400044004000480040BA
:1034C000004C004000500040002044490860091DA5
:1034D0000860091D0860091D086041483F49143112
:1034E0000860704700213D498279002A3AD00A4697
:1034F000126803689A430B461A600A1D1268036833
:103500009A430B1D1A60027911440A6803681A4332
:103510000A60324A0832126803689A432F4B083314
:103520001A601A1D126803689A432C4B0C331A60F8
:103530004279102A0ED11A1F126803681A43274BCA
:1035400008331A601A1D126803681A43234B0C33A0
:103550001A600DE02149427911440A6803681A4350
:103560000A6005E0027911440A6803689A430A6018
:1035700070470021016001710C21417100218171AE
:1035800070471649103109680143144A103211601E
:10359000704701460020114A143212680A400AB1ED
:1035A000012000E0002070470C491431086070478A
:1035B000014600200022094B1B6803EA0102074B69
:1035C00014331B680B4013B10AB1012000E0002046
:1035D0007047024914310860704700000004014040
:1035E000FFFF0F00704700000FB4044910B503AA95
:1035F000029800F02FF910BC5DF814FB3000002099
:103600000FB41CB5074B06AA7B4469460090059889
:1036100000F0F1F80020694600F000F91CBC5DF8EC
:1036200014FB0000110200002DE9F0410E46044693
:10363000002020622046E168884730B3252805D065
:10364000D4E901219047206A401CF2E7E168204656
:1036500000278847050018D0A5F14100192802D895
:1036600020354FF400673246294620462760FCF794
:1036700099FD40B1012804D0F61D26F00706083652
:10368000D8E7361DD6E72846DAE7206ABDE8F0819C
:1036900070B50C460546012A05D02878800600D56D
:1036A000EA69002302E0012305E05B1C934202D299
:1036B000E05C0028F9D1A869E618C01AA861286A58
:1036C000184428622846AFF3008004E0D5E90121C0
:1036D00014F8010B9047B442F8D32846AFF30080AA
:1036E00070BD10B5431C02E010F8011B71B18107D9
:1036F000FAD14FF0013202C88C1A8C4314EAC2117D
:10370000F9D0C01A0A0603D0C01E10BDC01A10BDE1
:103710000A0401D0801E10BD0902FCD0401E10BD5D
:103720004FF000020429C0F0128010F0030C00F0EA
:10373000A580CCF1040CBCF1020F18BF00F8012BDE
:10374000A8BF20F8022BA1EB0C0100F097B85FEAAC
:10375000C17C24BF00F8012B00F8012B48BF00F802
:10376000012B70474FF0013C50F8042B51F8043BFB
:103770009A4221D1A2EB0C03934313EACC1317D145
:1037800050F8042B51F8043B9A4215D1A2EB0C03DC
:10379000934313EACC130BD150F8042B51F8043B9C
:1037A0009A4209D1A2EB0C03934313EACC13DBD06A
:1037B0004FF00000704700BFD01A01BAB1FA81F192
:1037C00001F0180122FA01F0CB40C1F12001DBB277
:1037D000C0B2C01A2CFA01F3D11A914311EAC311F5
:1037E000E6D17047704770477047704701694A1CBF
:1037F00002610878704700B58FB0CDE90131002132
:10380000059105497944CDE9031011466846FFF753
:103810000BFF0FB000BD0000E5FFFFFF0A6802F8D4
:10382000010B0A60704710B5436913B1AFF3008014
:1038300001E0FFF72DFF012010BD127800F12401F7
:103840000A7000224A700122EDE711684FF0FF3242
:10385000E9E70000074B70B50D467B44FFF7CBFF4F
:103860000446284600F02FF810B14FF0FF3070BD2D
:10387000204670BDFFCEFFFF4FF0000200B513469B
:1038800094469646203922BFA0E80C50A0E80C5080
:10389000B1F12001BFF4F7AF090728BFA0E80C5031
:1038A00048BF0CC05DF804EB890028BF40F8042B2A
:1038B00008BF704748BF20F8022B11F0804F18BF97
:1038C00000F8012B7047007B00F0800070477546C0
:1038D00000F02CF8AE4605006946534620F007007C
:1038E000854618B020B5FEF7DDF8BDE820404FF062
:1038F00000064FF000074FF000084FF0000B21F0DA
:103900000701AC46ACE8C009ACE8C009ACE8C009A6
:10391000ACE8C0098D46704710B50446AFF300808F
:103920002046BDE81040FCF74FBC0000004870473F
:1039300064030020543900080000002068000000E3
:103940006C010008BC390008680000206009000014
:10395000880100080000000000000000E8030000EB
:10396000640000006400000020030000000000006C
:1039700000A24A040000000000000000010203044D
:103980000607080900000000000000000001000018
:103990000100000000010000010000000001000023
:1039A000010000000000000000000000010203040C
:0C39B000010203040607080902040608CF
:0400000508000131BD
:00000001FF
